{
    "contractName": "Charity",
    "abi": [
        {
            "inputs": [],
            "stateMutability": "nonpayable",
            "type": "constructor"
        },
        {
            "inputs": [
                {
                    "internalType": "address",
                    "name": "",
                    "type": "address"
                }
            ],
            "name": "donors",
            "outputs": [
                {
                    "internalType": "bool",
                    "name": "",
                    "type": "bool"
                }
            ],
            "stateMutability": "view",
            "type": "function",
            "constant": true
        },
        {
            "inputs": [],
            "name": "manager",
            "outputs": [
                {
                    "internalType": "address",
                    "name": "",
                    "type": "address"
                }
            ],
            "stateMutability": "view",
            "type": "function",
            "constant": true
        },
        {
            "inputs": [],
            "name": "totalDonors",
            "outputs": [
                {
                    "internalType": "uint256",
                    "name": "",
                    "type": "uint256"
                }
            ],
            "stateMutability": "view",
            "type": "function",
            "constant": true
        },
        {
            "inputs": [],
            "name": "totalamount",
            "outputs": [
                {
                    "internalType": "uint256",
                    "name": "",
                    "type": "uint256"
                }
            ],
            "stateMutability": "view",
            "type": "function",
            "constant": true
        },
        {
            "inputs": [
                {
                    "internalType": "address",
                    "name": "",
                    "type": "address"
                }
            ],
            "name": "userAgreements",
            "outputs": [
                {
                    "internalType": "bool",
                    "name": "",
                    "type": "bool"
                }
            ],
            "stateMutability": "view",
            "type": "function",
            "constant": true
        },
        {
            "inputs": [
                {
                    "internalType": "address",
                    "name": "",
                    "type": "address"
                }
            ],
            "name": "userBalances",
            "outputs": [
                {
                    "internalType": "uint256",
                    "name": "",
                    "type": "uint256"
                }
            ],
            "stateMutability": "view",
            "type": "function",
            "constant": true
        },
        {
            "inputs": [
                {
                    "internalType": "address",
                    "name": "",
                    "type": "address"
                }
            ],
            "name": "userVotes",
            "outputs": [
                {
                    "internalType": "uint256",
                    "name": "",
                    "type": "uint256"
                }
            ],
            "stateMutability": "view",
            "type": "function",
            "constant": true
        },
        {
            "inputs": [],
            "name": "donate",
            "outputs": [],
            "stateMutability": "payable",
            "type": "function",
            "payable": true
        },
        {
            "inputs": [],
            "name": "checkBalance",
            "outputs": [
                {
                    "internalType": "uint256",
                    "name": "",
                    "type": "uint256"
                }
            ],
            "stateMutability": "view",
            "type": "function",
            "constant": true
        },
        {
            "inputs": [
                {
                    "internalType": "address payable",
                    "name": "user",
                    "type": "address"
                },
                {
                    "internalType": "uint256",
                    "name": "amount",
                    "type": "uint256"
                }
            ],
            "name": "requestMoney",
            "outputs": [],
            "stateMutability": "payable",
            "type": "function",
            "payable": true
        },
        {
            "inputs": [
                {
                    "internalType": "address",
                    "name": "user",
                    "type": "address"
                }
            ],
            "name": "vote",
            "outputs": [],
            "stateMutability": "nonpayable",
            "type": "function"
        }
    ],
    "bytecode": "0x6080604052600060015534801561001557600080fd5b50336000806101000a81548173ffffffffffffffffffffffffffffffffffffffff021916908373ffffffffffffffffffffffffffffffffffffffff160217905550610f94806100656000396000f3fe60806040526004361061009c5760003560e01c80636dd7d8ea116100645780636dd7d8ea1461018d578063828af1c0146101b65780639ca0cf2a146101f3578063c71daccb1461021e578063ca0cdea814610249578063ed88c68e146102865761009c565b80630f8dd04d146100a157806325c302e4146100bd57806326224c64146100e8578063481c6a75146101255780636219015014610150575b600080fd5b6100bb60048036038101906100b6919061093b565b610290565b005b3480156100c957600080fd5b506100d26104c5565b6040516100df919061098a565b60405180910390f35b3480156100f457600080fd5b5061010f600480360381019061010a91906109e3565b6104cb565b60405161011c919061098a565b60405180910390f35b34801561013157600080fd5b5061013a6104e3565b6040516101479190610a1f565b60405180910390f35b34801561015c57600080fd5b50610177600480360381019061017291906109e3565b610507565b604051610184919061098a565b60405180910390f35b34801561019957600080fd5b506101b460048036038101906101af91906109e3565b61051f565b005b3480156101c257600080fd5b506101dd60048036038101906101d891906109e3565b61060a565b6040516101ea9190610a55565b60405180910390f35b3480156101ff57600080fd5b5061020861062a565b604051610215919061098a565b60405180910390f35b34801561022a57600080fd5b50610233610630565b604051610240919061098a565b60405180910390f35b34801561025557600080fd5b50610270600480360381019061026b91906109e3565b6106c9565b60405161027d9190610a55565b60405180910390f35b61028e6106e9565b005b60011515600660008473ffffffffffffffffffffffffffffffffffffffff1673ffffffffffffffffffffffffffffffffffffffff16815260200190815260200160002060009054906101000a900460ff16151514610323576040517f08c379a000000000000000000000000000000000000000000000000000000000815260040161031a90610acd565b60405180910390fd5b80600260008473ffffffffffffffffffffffffffffffffffffffff1673ffffffffffffffffffffffffffffffffffffffff1681526020019081526020016000205410156103a5576040517f08c379a000000000000000000000000000000000000000000000000000000000815260040161039c90610b5f565b60405180910390fd5b60026004546103b49190610bdd565b600560008473ffffffffffffffffffffffffffffffffffffffff1673ffffffffffffffffffffffffffffffffffffffff168152602001908152602001600020541015610435576040517f08c379a000000000000000000000000000000000000000000000000000000000815260040161042c90610c80565b60405180910390fd5b60015481111561047a576040517f08c379a000000000000000000000000000000000000000000000000000000000815260040161047190610cec565b60405180910390fd5b8173ffffffffffffffffffffffffffffffffffffffff166108fc829081150290604051600060405180830381858888f193505050501580156104c0573d6000803e3d6000fd5b505050565b60045481565b60026020528060005260406000206000915090505481565b60008054906101000a900473ffffffffffffffffffffffffffffffffffffffff1681565b60056020528060005260406000206000915090505481565b60011515600660003373ffffffffffffffffffffffffffffffffffffffff1673ffffffffffffffffffffffffffffffffffffffff16815260200190815260200160002060009054906101000a900460ff161515146105b2576040517f08c379a00000000000000000000000000000000000000000000000000000000081526004016105a990610d58565b60405180910390fd5b600560008273ffffffffffffffffffffffffffffffffffffffff1673ffffffffffffffffffffffffffffffffffffffff168152602001908152602001600020600081548092919061060290610d78565b919050555050565b60036020528060005260406000206000915054906101000a900460ff1681565b60015481565b60008060009054906101000a900473ffffffffffffffffffffffffffffffffffffffff1673ffffffffffffffffffffffffffffffffffffffff163373ffffffffffffffffffffffffffffffffffffffff16146106c1576040517f08c379a00000000000000000000000000000000000000000000000000000000081526004016106b890610e0c565b60405180910390fd5b600154905090565b60066020528060005260406000206000915054906101000a900460ff1681565b678ac7230489e80000341015610734576040517f08c379a000000000000000000000000000000000000000000000000000000000815260040161072b90610e9e565b60405180910390fd5b600660003373ffffffffffffffffffffffffffffffffffffffff1673ffffffffffffffffffffffffffffffffffffffff16815260200190815260200160002060009054906101000a900460ff16156107c1576040517f08c379a00000000000000000000000000000000000000000000000000000000081526004016107b890610f0a565b60405180910390fd5b6001600660003373ffffffffffffffffffffffffffffffffffffffff1673ffffffffffffffffffffffffffffffffffffffff16815260200190815260200160002060006101000a81548160ff021916908315150217905550346001600082825461082b9190610f2a565b9250508190555034600260003373ffffffffffffffffffffffffffffffffffffffff1673ffffffffffffffffffffffffffffffffffffffff16815260200190815260200160002060008282546108819190610f2a565b925050819055506004600081548092919061089b90610d78565b9190505550565b600080fd5b600073ffffffffffffffffffffffffffffffffffffffff82169050919050565b60006108d2826108a7565b9050919050565b6108e2816108c7565b81146108ed57600080fd5b50565b6000813590506108ff816108d9565b92915050565b6000819050919050565b61091881610905565b811461092357600080fd5b50565b6000813590506109358161090f565b92915050565b60008060408385031215610952576109516108a2565b5b6000610960858286016108f0565b925050602061097185828601610926565b9150509250929050565b61098481610905565b82525050565b600060208201905061099f600083018461097b565b92915050565b60006109b0826108a7565b9050919050565b6109c0816109a5565b81146109cb57600080fd5b50565b6000813590506109dd816109b7565b92915050565b6000602082840312156109f9576109f86108a2565b5b6000610a07848285016109ce565b91505092915050565b610a19816109a5565b82525050565b6000602082019050610a346000830184610a10565b92915050565b60008115159050919050565b610a4f81610a3a565b82525050565b6000602082019050610a6a6000830184610a46565b92915050565b600082825260208201905092915050565b7f55736572206973206e6f74206120646f6e6f7200000000000000000000000000600082015250565b6000610ab7601383610a70565b9150610ac282610a81565b602082019050919050565b60006020820190508181036000830152610ae681610aaa565b9050919050565b7f5573657220646f6573206e6f74206861766520656e6f7567682062616c616e6360008201527f6500000000000000000000000000000000000000000000000000000000000000602082015250565b6000610b49602183610a70565b9150610b5482610aed565b604082019050919050565b60006020820190508181036000830152610b7881610b3c565b9050919050565b7f4e487b7100000000000000000000000000000000000000000000000000000000600052601260045260246000fd5b7f4e487b7100000000000000000000000000000000000000000000000000000000600052601160045260246000fd5b6000610be882610905565b9150610bf383610905565b925082610c0357610c02610b7f565b5b828204905092915050565b7f353025206f6620746f74616c20646f6e6f7273206d757374206861766520616760008201527f7265656420746f2070726f636573732074686520726571756573740000000000602082015250565b6000610c6a603b83610a70565b9150610c7582610c0e565b604082019050919050565b60006020820190508181036000830152610c9981610c5d565b9050919050565b7f4e4f2046554e445320415641494c41424c450000000000000000000000000000600082015250565b6000610cd6601283610a70565b9150610ce182610ca0565b602082019050919050565b60006020820190508181036000830152610d0581610cc9565b9050919050565b7f43616c6c6572206973206e6f74206120646f6e6f720000000000000000000000600082015250565b6000610d42601583610a70565b9150610d4d82610d0c565b602082019050919050565b60006020820190508181036000830152610d7181610d35565b9050919050565b6000610d8382610905565b91507fffffffffffffffffffffffffffffffffffffffffffffffffffffffffffffffff8203610db557610db4610bae565b5b600182019050919050565b7f43616c6c6572206973206e6f7420746865206d616e6167657200000000000000600082015250565b6000610df6601983610a70565b9150610e0182610dc0565b602082019050919050565b60006020820190508181036000830152610e2581610de9565b9050919050565b7f45746865722076616c7565206d7573742062652067726561746572207468616e60008201527f20302e3120457468657200000000000000000000000000000000000000000000602082015250565b6000610e88602a83610a70565b9150610e9382610e2c565b604082019050919050565b60006020820190508181036000830152610eb781610e7b565b9050919050565b7f5573657220697320616c7265616479206120646f6e6f72000000000000000000600082015250565b6000610ef4601783610a70565b9150610eff82610ebe565b602082019050919050565b60006020820190508181036000830152610f2381610ee7565b9050919050565b6000610f3582610905565b9150610f4083610905565b9250828201905080821115610f5857610f57610bae565b5b9291505056fea26469706673582212207ae43ba72d3127e5cd1ecee268370bf85c4111367671988cdf6f13831025d52164736f6c63430008110033",
    "immutableReferences": {},
    "source": "pragma solidity ^0.8.0;\r\n\r\ncontract Charity {\r\n    address public manager;\r\n    uint256 public totalamount = 0;\r\n\r\n    // mapping to store the total balance of each user\r\n    mapping(address => uint256) public userBalances;\r\n    // mapping to store the agreement of each user\r\n    mapping(address => bool) public userAgreements;\r\n    // variable to store the total number of donors\r\n    uint256 public totalDonors;\r\n    // mapping to store the total number of votes of each user\r\n    mapping(address => uint256) public userVotes;\r\n    //set to store unique donors\r\n    mapping(address => bool) public donors;\r\n\r\n    // constructor\r\n    constructor() public {\r\n        manager = msg.sender;\r\n    }\r\n\r\n    function donate() public payable {\r\n        // check if the amount of Ether sent is greater than 0.1 Ether\r\n        require(\r\n            msg.value >= 10000000000000000000,\r\n            \"Ether value must be greater than 0.1 Ether\"\r\n        );\r\n        // check if the user is not already a donor\r\n        require(!donors[msg.sender], \"User is already a donor\");\r\n        // mark the user as a donor\r\n        donors[msg.sender] = true;\r\n        // add the received Ether to the total balance\r\n        totalamount += msg.value;\r\n        userBalances[msg.sender] += msg.value;\r\n        totalDonors++;\r\n    }\r\n\r\n    function checkBalance() public view returns (uint256) {\r\n        require(msg.sender == manager, \"Caller is not the manager\");\r\n        return totalamount;\r\n    }\r\n\r\n    // function to request money\r\n    function requestMoney(address payable user, uint256 amount) public payable {\r\n        // check if the user is a donor\r\n        require(donors[user] == true, \"User is not a donor\");\r\n        // check if the user has enough balance\r\n        require(\r\n            userBalances[user] >= amount,\r\n            \"User does not have enough balance\"\r\n        );\r\n        // check if 50% of total donors have agreed\r\n        require(\r\n            userVotes[user] >= (totalDonors / 2),\r\n            \"50% of total donors must have agreed to process the request\"\r\n        );\r\n        // check if the amount of requested Ether is less than the total amount\r\n        require(amount <= totalamount, \"NO FUNDS AVAILABLE\");\r\n        // send the requested amount to the user\r\n        user.transfer(amount);\r\n    }\r\n\r\n    function vote(address user) public {\r\n        require(donors[msg.sender] == true, \"Caller is not a donor\");\r\n        userVotes[user]++;\r\n    }\r\n}\r\n",
    "sourcePath": "E:\\Projects2021\\Charity\\contracts\\Charity.sol",
    "compiler": {
        "name": "solc",
        "version": "0.8.17+commit.8df45f5f.Emscripten.clang"
    },
    "schemaVersion": "3.4.10",
    "updatedAt": "2023-01-22T19:56:41.247Z",
    "networkType": "ethereum",
    "devdoc": {
        "kind": "dev",
        "methods": {},
        "version": 1
    },
    "userdoc": {
        "kind": "user",
        "methods": {},
        "version": 1
    }
}