{
  "contractName": "Charity",
  "abi": [
    {
      "inputs": [],
      "stateMutability": "nonpayable",
      "type": "constructor"
    },
    {
      "inputs": [
        {
          "internalType": "address",
          "name": "",
          "type": "address"
        }
      ],
      "name": "donors",
      "outputs": [
        {
          "internalType": "bool",
          "name": "",
          "type": "bool"
        }
      ],
      "stateMutability": "view",
      "type": "function"
    },
    {
      "inputs": [],
      "name": "manager",
      "outputs": [
        {
          "internalType": "address",
          "name": "",
          "type": "address"
        }
      ],
      "stateMutability": "view",
      "type": "function"
    },
    {
      "inputs": [],
      "name": "totalDonors",
      "outputs": [
        {
          "internalType": "uint256",
          "name": "",
          "type": "uint256"
        }
      ],
      "stateMutability": "view",
      "type": "function"
    },
    {
      "inputs": [],
      "name": "totalamount",
      "outputs": [
        {
          "internalType": "uint256",
          "name": "",
          "type": "uint256"
        }
      ],
      "stateMutability": "view",
      "type": "function"
    },
    {
      "inputs": [
        {
          "internalType": "address",
          "name": "",
          "type": "address"
        }
      ],
      "name": "userAgreements",
      "outputs": [
        {
          "internalType": "bool",
          "name": "",
          "type": "bool"
        }
      ],
      "stateMutability": "view",
      "type": "function"
    },
    {
      "inputs": [
        {
          "internalType": "address",
          "name": "",
          "type": "address"
        }
      ],
      "name": "userBalances",
      "outputs": [
        {
          "internalType": "uint256",
          "name": "",
          "type": "uint256"
        }
      ],
      "stateMutability": "view",
      "type": "function"
    },
    {
      "inputs": [
        {
          "internalType": "address",
          "name": "",
          "type": "address"
        }
      ],
      "name": "userVotes",
      "outputs": [
        {
          "internalType": "uint256",
          "name": "",
          "type": "uint256"
        }
      ],
      "stateMutability": "view",
      "type": "function"
    },
    {
      "inputs": [],
      "name": "donate",
      "outputs": [],
      "stateMutability": "payable",
      "type": "function"
    },
    {
      "inputs": [],
      "name": "checkBalance",
      "outputs": [
        {
          "internalType": "uint256",
          "name": "",
          "type": "uint256"
        }
      ],
      "stateMutability": "view",
      "type": "function"
    },
    {
      "inputs": [
        {
          "internalType": "address payable",
          "name": "user",
          "type": "address"
        },
        {
          "internalType": "uint256",
          "name": "amount",
          "type": "uint256"
        }
      ],
      "name": "requestMoney",
      "outputs": [],
      "stateMutability": "payable",
      "type": "function"
    },
    {
      "inputs": [
        {
          "internalType": "address",
          "name": "user",
          "type": "address"
        }
      ],
      "name": "vote",
      "outputs": [],
      "stateMutability": "nonpayable",
      "type": "function"
    }
  ],
  "bytecode": "0x6080604052600060015534801561001557600080fd5b50336000806101000a81548173ffffffffffffffffffffffffffffffffffffffff021916908373ffffffffffffffffffffffffffffffffffffffff160217905550610e97806100656000396000f3fe60806040526004361061009c5760003560e01c80636dd7d8ea116100645780636dd7d8ea1461018d578063828af1c0146101b65780639ca0cf2a146101f3578063c71daccb1461021e578063ca0cdea814610249578063ed88c68e146102865761009c565b80630f8dd04d146100a157806325c302e4146100bd57806326224c64146100e8578063481c6a75146101255780636219015014610150575b600080fd5b6100bb60048036038101906100b691906108aa565b610290565b005b3480156100c957600080fd5b506100d26104c5565b6040516100df91906108f9565b60405180910390f35b3480156100f457600080fd5b5061010f600480360381019061010a9190610952565b6104cb565b60405161011c91906108f9565b60405180910390f35b34801561013157600080fd5b5061013a6104e3565b604051610147919061098e565b60405180910390f35b34801561015c57600080fd5b5061017760048036038101906101729190610952565b610507565b60405161018491906108f9565b60405180910390f35b34801561019957600080fd5b506101b460048036038101906101af9190610952565b61051f565b005b3480156101c257600080fd5b506101dd60048036038101906101d89190610952565b61060a565b6040516101ea91906109c4565b60405180910390f35b3480156101ff57600080fd5b5061020861062a565b60405161021591906108f9565b60405180910390f35b34801561022a57600080fd5b50610233610630565b60405161024091906108f9565b60405180910390f35b34801561025557600080fd5b50610270600480360381019061026b9190610952565b6106c9565b60405161027d91906109c4565b60405180910390f35b61028e6106e9565b005b60011515600660008473ffffffffffffffffffffffffffffffffffffffff1673ffffffffffffffffffffffffffffffffffffffff16815260200190815260200160002060009054906101000a900460ff16151514610323576040517f08c379a000000000000000000000000000000000000000000000000000000000815260040161031a90610a3c565b60405180910390fd5b80600260008473ffffffffffffffffffffffffffffffffffffffff1673ffffffffffffffffffffffffffffffffffffffff1681526020019081526020016000205410156103a5576040517f08c379a000000000000000000000000000000000000000000000000000000000815260040161039c90610ace565b60405180910390fd5b60026004546103b49190610b4c565b600560008473ffffffffffffffffffffffffffffffffffffffff1673ffffffffffffffffffffffffffffffffffffffff168152602001908152602001600020541015610435576040517f08c379a000000000000000000000000000000000000000000000000000000000815260040161042c90610bef565b60405180910390fd5b60015481111561047a576040517f08c379a000000000000000000000000000000000000000000000000000000000815260040161047190610c5b565b60405180910390fd5b8173ffffffffffffffffffffffffffffffffffffffff166108fc829081150290604051600060405180830381858888f193505050501580156104c0573d6000803e3d6000fd5b505050565b60045481565b60026020528060005260406000206000915090505481565b60008054906101000a900473ffffffffffffffffffffffffffffffffffffffff1681565b60056020528060005260406000206000915090505481565b60011515600660003373ffffffffffffffffffffffffffffffffffffffff1673ffffffffffffffffffffffffffffffffffffffff16815260200190815260200160002060009054906101000a900460ff161515146105b2576040517f08c379a00000000000000000000000000000000000000000000000000000000081526004016105a990610cc7565b60405180910390fd5b600560008273ffffffffffffffffffffffffffffffffffffffff1673ffffffffffffffffffffffffffffffffffffffff168152602001908152602001600020600081548092919061060290610ce7565b919050555050565b60036020528060005260406000206000915054906101000a900460ff1681565b60015481565b60008060009054906101000a900473ffffffffffffffffffffffffffffffffffffffff1673ffffffffffffffffffffffffffffffffffffffff163373ffffffffffffffffffffffffffffffffffffffff16146106c1576040517f08c379a00000000000000000000000000000000000000000000000000000000081526004016106b890610d7b565b60405180910390fd5b600154905090565b60066020528060005260406000206000915054906101000a900460ff1681565b606434101561072d576040517f08c379a000000000000000000000000000000000000000000000000000000000815260040161072490610e0d565b60405180910390fd5b60001515600660003373ffffffffffffffffffffffffffffffffffffffff1673ffffffffffffffffffffffffffffffffffffffff16815260200190815260200160002060009054906101000a900460ff1615150361079e576004600081548092919061079890610ce7565b91905055505b6001600660003373ffffffffffffffffffffffffffffffffffffffff1673ffffffffffffffffffffffffffffffffffffffff16815260200190815260200160002060006101000a81548160ff02191690831515021790555034600160008282546108089190610e2d565b92505081905550565b600080fd5b600073ffffffffffffffffffffffffffffffffffffffff82169050919050565b600061084182610816565b9050919050565b61085181610836565b811461085c57600080fd5b50565b60008135905061086e81610848565b92915050565b6000819050919050565b61088781610874565b811461089257600080fd5b50565b6000813590506108a48161087e565b92915050565b600080604083850312156108c1576108c0610811565b5b60006108cf8582860161085f565b92505060206108e085828601610895565b9150509250929050565b6108f381610874565b82525050565b600060208201905061090e60008301846108ea565b92915050565b600061091f82610816565b9050919050565b61092f81610914565b811461093a57600080fd5b50565b60008135905061094c81610926565b92915050565b60006020828403121561096857610967610811565b5b60006109768482850161093d565b91505092915050565b61098881610914565b82525050565b60006020820190506109a3600083018461097f565b92915050565b60008115159050919050565b6109be816109a9565b82525050565b60006020820190506109d960008301846109b5565b92915050565b600082825260208201905092915050565b7f55736572206973206e6f74206120646f6e6f7200000000000000000000000000600082015250565b6000610a266013836109df565b9150610a31826109f0565b602082019050919050565b60006020820190508181036000830152610a5581610a19565b9050919050565b7f5573657220646f6573206e6f74206861766520656e6f7567682062616c616e6360008201527f6500000000000000000000000000000000000000000000000000000000000000602082015250565b6000610ab86021836109df565b9150610ac382610a5c565b604082019050919050565b60006020820190508181036000830152610ae781610aab565b9050919050565b7f4e487b7100000000000000000000000000000000000000000000000000000000600052601260045260246000fd5b7f4e487b7100000000000000000000000000000000000000000000000000000000600052601160045260246000fd5b6000610b5782610874565b9150610b6283610874565b925082610b7257610b71610aee565b5b828204905092915050565b7f353025206f6620746f74616c20646f6e6f7273206d757374206861766520616760008201527f7265656420746f2070726f636573732074686520726571756573740000000000602082015250565b6000610bd9603b836109df565b9150610be482610b7d565b604082019050919050565b60006020820190508181036000830152610c0881610bcc565b9050919050565b7f4e4f2046554e445320415641494c41424c450000000000000000000000000000600082015250565b6000610c456012836109df565b9150610c5082610c0f565b602082019050919050565b60006020820190508181036000830152610c7481610c38565b9050919050565b7f43616c6c6572206973206e6f74206120646f6e6f720000000000000000000000600082015250565b6000610cb16015836109df565b9150610cbc82610c7b565b602082019050919050565b60006020820190508181036000830152610ce081610ca4565b9050919050565b6000610cf282610874565b91507fffffffffffffffffffffffffffffffffffffffffffffffffffffffffffffffff8203610d2457610d23610b1d565b5b600182019050919050565b7f43616c6c6572206973206e6f7420746865206d616e6167657200000000000000600082015250565b6000610d656019836109df565b9150610d7082610d2f565b602082019050919050565b60006020820190508181036000830152610d9481610d58565b9050919050565b7f45746865722076616c7565206d7573742062652067726561746572207468616e60008201527f20302e3120457468657200000000000000000000000000000000000000000000602082015250565b6000610df7602a836109df565b9150610e0282610d9b565b604082019050919050565b60006020820190508181036000830152610e2681610dea565b9050919050565b6000610e3882610874565b9150610e4383610874565b9250828201905080821115610e5b57610e5a610b1d565b5b9291505056fea2646970667358221220b4573a305bc11a416a507cbf8b6b4f380fd889b4e5a1cc9a783408d3c8cc81c564736f6c63430008110033",
  "immutableReferences": {},
  "source": "pragma solidity ^0.8.0;\r\n\r\ncontract Charity {\r\n    address public manager;\r\n    uint256 public totalamount = 0;\r\n\r\n    // mapping to store the total balance of each user\r\n    mapping(address => uint256) public userBalances;\r\n    // mapping to store the agreement of each user\r\n    mapping(address => bool) public userAgreements;\r\n    // variable to store the total number of donors\r\n    uint256 public totalDonors;\r\n    // mapping to store the total number of votes of each user\r\n    mapping(address => uint256) public userVotes;\r\n    //set to store unique donors\r\n    mapping(address => bool) public donors;\r\n\r\n    // constructor\r\n    constructor() public {\r\n        manager = msg.sender;\r\n    }\r\n\r\n    function donate() public payable {\r\n        // check if the amount of Ether sent is greater than 0.1 Ether\r\n        require(\r\n            msg.value >= 100 wei,\r\n            \"Ether value must be greater than 0.1 Ether\"\r\n        );\r\n        if(donors[msg.sender]==false){\r\n        totalDonors++;}\r\n        // mark the user as a donor\r\n        donors[msg.sender] = true;\r\n        // add the received Ether to the total balance\r\n         totalamount += msg.value;\r\n        // userBalances[msg.sender] += msg.value;\r\n\r\n        \r\n    }\r\n\r\n    \r\n\r\n    function checkBalance() public view returns (uint256) {\r\n        require(msg.sender == manager, \"Caller is not the manager\");\r\n        return totalamount;\r\n    }\r\n\r\n    // function to request money\r\n    function requestMoney(address payable user, uint256 amount) public payable {\r\n        // check if the user is a donor\r\n        require(donors[user] == true, \"User is not a donor\");\r\n        // check if the user has enough balance\r\n        require(\r\n            userBalances[user] >= amount,\r\n            \"User does not have enough balance\"\r\n        );\r\n        // check if 50% of total donors have agreed\r\n        require(\r\n            userVotes[user] >= (totalDonors / 2),\r\n            \"50% of total donors must have agreed to process the request\"\r\n        );\r\n        // check if the amount of requested Ether is less than the total amount\r\n        require(amount <= totalamount, \"NO FUNDS AVAILABLE\");\r\n        // send the requested amount to the user\r\n        user.transfer(amount);\r\n    }\r\n\r\n    function vote(address user) public {\r\n        require(donors[msg.sender] == true, \"Caller is not a donor\");\r\n        userVotes[user]++;\r\n    }\r\n}",
  "sourcePath": "E:\\Projects2021\\Charity\\contracts\\earlier charity.sol",
  "compiler": {
    "name": "solc",
    "version": "0.8.17+commit.8df45f5f.Emscripten.clang"
  },
  "schemaVersion": "3.4.10",
  "updatedAt": "2023-02-12T13:47:21.790Z",
  "devdoc": {
    "kind": "dev",
    "methods": {},
    "version": 1
  },
  "userdoc": {
    "kind": "user",
    "methods": {},
    "version": 1
  }
}