{
  "contractName": "CrowdFund",
  "abi": [
    {
      "inputs": [],
      "stateMutability": "nonpayable",
      "type": "constructor"
    },
    {
      "inputs": [
        {
          "internalType": "address",
          "name": "",
          "type": "address"
        }
      ],
      "name": "donors",
      "outputs": [
        {
          "internalType": "bool",
          "name": "",
          "type": "bool"
        }
      ],
      "stateMutability": "view",
      "type": "function",
      "constant": true
    },
    {
      "inputs": [],
      "name": "manager",
      "outputs": [
        {
          "internalType": "address",
          "name": "",
          "type": "address"
        }
      ],
      "stateMutability": "view",
      "type": "function",
      "constant": true
    },
    {
      "inputs": [],
      "name": "totalamount",
      "outputs": [
        {
          "internalType": "uint256",
          "name": "",
          "type": "uint256"
        }
      ],
      "stateMutability": "view",
      "type": "function",
      "constant": true
    },
    {
      "inputs": [],
      "name": "donate",
      "outputs": [],
      "stateMutability": "payable",
      "type": "function",
      "payable": true
    },
    {
      "inputs": [],
      "name": "checkBalance",
      "outputs": [
        {
          "internalType": "uint256",
          "name": "",
          "type": "uint256"
        }
      ],
      "stateMutability": "view",
      "type": "function",
      "constant": true
    },
    {
      "inputs": [
        {
          "internalType": "address payable",
          "name": "user",
          "type": "address"
        },
        {
          "internalType": "uint256",
          "name": "amount",
          "type": "uint256"
        }
      ],
      "name": "requestMoney",
      "outputs": [],
      "stateMutability": "payable",
      "type": "function",
      "payable": true
    }
  ],
  "bytecode": "0x6080604052600060015534801561001557600080fd5b50336000806101000a81548173ffffffffffffffffffffffffffffffffffffffff021916908373ffffffffffffffffffffffffffffffffffffffff160217905550610716806100656000396000f3fe6080604052600436106100555760003560e01c80630f8dd04d1461005a578063481c6a75146100765780639ca0cf2a146100a1578063c71daccb146100cc578063ca0cdea8146100f7578063ed88c68e14610134575b600080fd5b610074600480360381019061006f91906103a7565b61013e565b005b34801561008257600080fd5b5061008b6101cc565b6040516100989190610408565b60405180910390f35b3480156100ad57600080fd5b506100b66101f0565b6040516100c39190610432565b60405180910390f35b3480156100d857600080fd5b506100e16101f6565b6040516100ee9190610432565b60405180910390f35b34801561010357600080fd5b5061011e60048036038101906101199190610479565b61028f565b60405161012b91906104c1565b60405180910390f35b61013c6102af565b005b80341115610181576040517f08c379a00000000000000000000000000000000000000000000000000000000081526004016101789061055f565b60405180910390fd5b8173ffffffffffffffffffffffffffffffffffffffff166108fc829081150290604051600060405180830381858888f193505050501580156101c7573d6000803e3d6000fd5b505050565b60008054906101000a900473ffffffffffffffffffffffffffffffffffffffff1681565b60015481565b60008060009054906101000a900473ffffffffffffffffffffffffffffffffffffffff1673ffffffffffffffffffffffffffffffffffffffff163373ffffffffffffffffffffffffffffffffffffffff1614610287576040517f08c379a000000000000000000000000000000000000000000000000000000000815260040161027e906105cb565b60405180910390fd5b600154905090565b60026020528060005260406000206000915054906101000a900460ff1681565b60643410156102f3576040517f08c379a00000000000000000000000000000000000000000000000000000000081526004016102ea9061065d565b60405180910390fd5b346001600082825461030591906106ac565b92505081905550565b600080fd5b600073ffffffffffffffffffffffffffffffffffffffff82169050919050565b600061033e82610313565b9050919050565b61034e81610333565b811461035957600080fd5b50565b60008135905061036b81610345565b92915050565b6000819050919050565b61038481610371565b811461038f57600080fd5b50565b6000813590506103a18161037b565b92915050565b600080604083850312156103be576103bd61030e565b5b60006103cc8582860161035c565b92505060206103dd85828601610392565b9150509250929050565b60006103f282610313565b9050919050565b610402816103e7565b82525050565b600060208201905061041d60008301846103f9565b92915050565b61042c81610371565b82525050565b60006020820190506104476000830184610423565b92915050565b610456816103e7565b811461046157600080fd5b50565b6000813590506104738161044d565b92915050565b60006020828403121561048f5761048e61030e565b5b600061049d84828501610464565b91505092915050565b60008115159050919050565b6104bb816104a6565b82525050565b60006020820190506104d660008301846104b2565b92915050565b600082825260208201905092915050565b7f53656e742076616c75652069732067726561746572207468616e20746865207260008201527f657175657374656420616d6f756e740000000000000000000000000000000000602082015250565b6000610549602f836104dc565b9150610554826104ed565b604082019050919050565b600060208201905081810360008301526105788161053c565b9050919050565b7f43616c6c6572206973206e6f7420746865206d616e6167657200000000000000600082015250565b60006105b56019836104dc565b91506105c08261057f565b602082019050919050565b600060208201905081810360008301526105e4816105a8565b9050919050565b7f45746865722076616c7565206d7573742062652067726561746572207468616e60008201527f20302e3120457468657200000000000000000000000000000000000000000000602082015250565b6000610647602a836104dc565b9150610652826105eb565b604082019050919050565b600060208201905081810360008301526106768161063a565b9050919050565b7f4e487b7100000000000000000000000000000000000000000000000000000000600052601160045260246000fd5b60006106b782610371565b91506106c283610371565b92508282019050808211156106da576106d961067d565b5b9291505056fea26469706673582212200902ad415670704f1dcd28e98aaab569154b8a7d422661c7bb1ad0f08852ff8964736f6c63430008110033",
  "immutableReferences": {},
  "source": "pragma solidity ^0.8.0;\r\n\r\ncontract CrowdFund {\r\n    address public manager;\r\n    uint256 public totalamount = 0;\r\n\r\n    //set to store unique donors\r\n    mapping(address => bool) public donors;\r\n\r\n    // constructor\r\n    constructor() public {\r\n        manager = msg.sender;\r\n    }\r\n\r\n    function donate() public payable {\r\n        // check if the amount of Ether sent is greater than 0.1 Ether\r\n        require(\r\n            msg.value >= 100 wei,\r\n            \"Ether value must be greater than 0.1 Ether\"\r\n        );\r\n        // add the received Ether to the total balance\r\n        totalamount += msg.value;\r\n    }\r\n\r\n    function checkBalance() public view returns (uint256) {\r\n        require(msg.sender == manager, \"Caller is not the manager\");\r\n        return totalamount;\r\n    }\r\n\r\n    // function to request money\r\n    function requestMoney(address payable user, uint256 amount) public payable {\r\n        require(\r\n            msg.value <= amount,\r\n            \"Sent value is greater than the requested amount\"\r\n        );\r\n\r\n        user.transfer(amount);\r\n    }\r\n}\r\n\r\n//0xC1A8834517A1359872027146759D0B260AEdc1dB - current smart contract address\r\n//0x1a46a972d482a76d065c5917d993693aa241202f7c398be7203b5cc16169866f\r\n",
  "sourcePath": "E:\\Projects2021\\Charity\\contracts\\CrowdFund.sol",
  "compiler": {
    "name": "solc",
    "version": "0.8.17+commit.8df45f5f.Emscripten.clang"
  },
  "schemaVersion": "3.4.10",
  "updatedAt": "2023-02-12T13:48:08.001Z",
  "networkType": "ethereum",
  "devdoc": {
    "kind": "dev",
    "methods": {},
    "version": 1
  },
  "userdoc": {
    "kind": "user",
    "methods": {},
    "version": 1
  }
}